{
  "_format": "hh-sol-artifact-1",
  "contractName": "Exchange",
  "sourceName": "contracts/Exchange.sol",
  "abi": [
    {
      "inputs": [
        {
          "internalType": "address",
          "name": "_feeAccount",
          "type": "address"
        },
        {
          "internalType": "uint256",
          "name": "_feePercent",
          "type": "uint256"
        }
      ],
      "stateMutability": "nonpayable",
      "type": "constructor"
    },
    {
      "anonymous": false,
      "inputs": [
        {
          "indexed": false,
          "internalType": "address",
          "name": "token",
          "type": "address"
        },
        {
          "indexed": false,
          "internalType": "address",
          "name": "user",
          "type": "address"
        },
        {
          "indexed": false,
          "internalType": "uint256",
          "name": "amount",
          "type": "uint256"
        },
        {
          "indexed": false,
          "internalType": "uint256",
          "name": "balance",
          "type": "uint256"
        }
      ],
      "name": "Deposit",
      "type": "event"
    },
    {
      "inputs": [
        {
          "internalType": "address",
          "name": "_token",
          "type": "address"
        },
        {
          "internalType": "address",
          "name": "_user",
          "type": "address"
        }
      ],
      "name": "balanceOf",
      "outputs": [
        {
          "internalType": "uint256",
          "name": "",
          "type": "uint256"
        }
      ],
      "stateMutability": "view",
      "type": "function"
    },
    {
      "inputs": [
        {
          "internalType": "address",
          "name": "_token",
          "type": "address"
        },
        {
          "internalType": "uint256",
          "name": "_amount",
          "type": "uint256"
        }
      ],
      "name": "depositToken",
      "outputs": [],
      "stateMutability": "nonpayable",
      "type": "function"
    },
    {
      "inputs": [],
      "name": "feeAccount",
      "outputs": [
        {
          "internalType": "address",
          "name": "",
          "type": "address"
        }
      ],
      "stateMutability": "view",
      "type": "function"
    },
    {
      "inputs": [],
      "name": "feePercent",
      "outputs": [
        {
          "internalType": "uint256",
          "name": "",
          "type": "uint256"
        }
      ],
      "stateMutability": "view",
      "type": "function"
    },
    {
      "inputs": [
        {
          "internalType": "address",
          "name": "",
          "type": "address"
        },
        {
          "internalType": "address",
          "name": "",
          "type": "address"
        }
      ],
      "name": "tokens",
      "outputs": [
        {
          "internalType": "uint256",
          "name": "",
          "type": "uint256"
        }
      ],
      "stateMutability": "view",
      "type": "function"
    }
  ],
  "bytecode": "0x608060405234801561001057600080fd5b506040516108b83803806108b883398181016040528101906100329190610119565b816000806101000a81548173ffffffffffffffffffffffffffffffffffffffff021916908373ffffffffffffffffffffffffffffffffffffffff160217905550806001819055505050610159565b600080fd5b600073ffffffffffffffffffffffffffffffffffffffff82169050919050565b60006100b082610085565b9050919050565b6100c0816100a5565b81146100cb57600080fd5b50565b6000815190506100dd816100b7565b92915050565b6000819050919050565b6100f6816100e3565b811461010157600080fd5b50565b600081519050610113816100ed565b92915050565b600080604083850312156101305761012f610080565b5b600061013e858286016100ce565b925050602061014f85828601610104565b9150509250929050565b610750806101686000396000f3fe608060405234801561001057600080fd5b50600436106100575760003560e01c8063338b5dea1461005c578063508493bc1461007857806365e17c9d146100a85780637fd6f15c146100c6578063f7888aec146100e4575b600080fd5b610076600480360381019061007191906104e0565b610114565b005b610092600480360381019061008d9190610520565b610371565b60405161009f919061056f565b60405180910390f35b6100b0610396565b6040516100bd9190610599565b60405180910390f35b6100ce6103ba565b6040516100db919061056f565b60405180910390f35b6100fe60048036038101906100f99190610520565b6103c0565b60405161010b919061056f565b60405180910390f35b8173ffffffffffffffffffffffffffffffffffffffff166323b872dd3330846040518463ffffffff1660e01b8152600401610151939291906105b4565b602060405180830381600087803b15801561016b57600080fd5b505af115801561017f573d6000803e3d6000fd5b505050506040513d601f19601f820116820180604052508101906101a39190610623565b6101ac57600080fd5b80600260008473ffffffffffffffffffffffffffffffffffffffff1673ffffffffffffffffffffffffffffffffffffffff16815260200190815260200160002060003373ffffffffffffffffffffffffffffffffffffffff1673ffffffffffffffffffffffffffffffffffffffff16815260200190815260200160002054610234919061067f565b600260008473ffffffffffffffffffffffffffffffffffffffff1673ffffffffffffffffffffffffffffffffffffffff16815260200190815260200160002060003373ffffffffffffffffffffffffffffffffffffffff1673ffffffffffffffffffffffffffffffffffffffff168152602001908152602001600020819055507fdcbc1c05240f31ff3ad067ef1ee35ce4997762752e3a095284754544f4c709d7823383600260008773ffffffffffffffffffffffffffffffffffffffff1673ffffffffffffffffffffffffffffffffffffffff16815260200190815260200160002060003373ffffffffffffffffffffffffffffffffffffffff1673ffffffffffffffffffffffffffffffffffffffff1681526020019081526020016000205460405161036594939291906106d5565b60405180910390a15050565b6002602052816000526040600020602052806000526040600020600091509150505481565b60008054906101000a900473ffffffffffffffffffffffffffffffffffffffff1681565b60015481565b6000600260008473ffffffffffffffffffffffffffffffffffffffff1673ffffffffffffffffffffffffffffffffffffffff16815260200190815260200160002060008373ffffffffffffffffffffffffffffffffffffffff1673ffffffffffffffffffffffffffffffffffffffff16815260200190815260200160002054905092915050565b600080fd5b600073ffffffffffffffffffffffffffffffffffffffff82169050919050565b60006104778261044c565b9050919050565b6104878161046c565b811461049257600080fd5b50565b6000813590506104a48161047e565b92915050565b6000819050919050565b6104bd816104aa565b81146104c857600080fd5b50565b6000813590506104da816104b4565b92915050565b600080604083850312156104f7576104f6610447565b5b600061050585828601610495565b9250506020610516858286016104cb565b9150509250929050565b6000806040838503121561053757610536610447565b5b600061054585828601610495565b925050602061055685828601610495565b9150509250929050565b610569816104aa565b82525050565b60006020820190506105846000830184610560565b92915050565b6105938161046c565b82525050565b60006020820190506105ae600083018461058a565b92915050565b60006060820190506105c9600083018661058a565b6105d6602083018561058a565b6105e36040830184610560565b949350505050565b60008115159050919050565b610600816105eb565b811461060b57600080fd5b50565b60008151905061061d816105f7565b92915050565b60006020828403121561063957610638610447565b5b60006106478482850161060e565b91505092915050565b7f4e487b7100000000000000000000000000000000000000000000000000000000600052601160045260246000fd5b600061068a826104aa565b9150610695836104aa565b9250827fffffffffffffffffffffffffffffffffffffffffffffffffffffffffffffffff038211156106ca576106c9610650565b5b828201905092915050565b60006080820190506106ea600083018761058a565b6106f7602083018661058a565b6107046040830185610560565b6107116060830184610560565b9594505050505056fea2646970667358221220f9d2bcf7b34cc49ef0112c1c97a393ca777cca6973f57c76de43a2ab5ff0b55064736f6c63430008090033",
  "linkReferences": {},
  "deployedLinkReferences": {}
}