{
  "_format": "hh-sol-artifact-1",
  "contractName": "Token",
  "sourceName": "contracts/Token.sol",
  "abi": [
    {
      "inputs": [
        {
          "internalType": "string",
          "name": "_name",
          "type": "string"
        },
        {
          "internalType": "string",
          "name": "_symbol",
          "type": "string"
        },
        {
          "internalType": "uint256",
          "name": "_totalSupply",
          "type": "uint256"
        }
      ],
      "stateMutability": "nonpayable",
      "type": "constructor"
    },
    {
      "inputs": [],
      "name": "decimals",
      "outputs": [
        {
          "internalType": "uint256",
          "name": "",
          "type": "uint256"
        }
      ],
      "stateMutability": "view",
      "type": "function"
    },
    {
      "inputs": [],
      "name": "name",
      "outputs": [
        {
          "internalType": "string",
          "name": "",
          "type": "string"
        }
      ],
      "stateMutability": "view",
      "type": "function"
    },
    {
      "inputs": [],
      "name": "symbol",
      "outputs": [
        {
          "internalType": "string",
          "name": "",
          "type": "string"
        }
      ],
      "stateMutability": "view",
      "type": "function"
    },
    {
      "inputs": [],
      "name": "totalSupply",
      "outputs": [
        {
          "internalType": "uint256",
          "name": "",
          "type": "uint256"
        }
      ],
      "stateMutability": "view",
      "type": "function"
    }
  ],
  "bytecode": "0x60806040526012600255600254600a6200001a9190620002fc565b620f42406200002a91906200034d565b6003553480156200003a57600080fd5b5060405162000a0238038062000a0283398181016040528101906200006091906200057c565b826000908051906020019062000078929190620000bf565b50816001908051906020019062000091929190620000bf565b50600254600a620000a39190620002fc565b81620000b091906200034d565b6003819055505050506200067b565b828054620000cd9062000645565b90600052602060002090601f016020900481019282620000f157600085556200013d565b82601f106200010c57805160ff19168380011785556200013d565b828001600101855582156200013d579182015b828111156200013c5782518255916020019190600101906200011f565b5b5090506200014c919062000150565b5090565b5b808211156200016b57600081600090555060010162000151565b5090565b7f4e487b7100000000000000000000000000000000000000000000000000000000600052601160045260246000fd5b60008160011c9050919050565b6000808291508390505b6001851115620001fd57808604811115620001d557620001d46200016f565b5b6001851615620001e55780820291505b8081029050620001f5856200019e565b9450620001b5565b94509492505050565b600082620002185760019050620002eb565b81620002285760009050620002eb565b81600181146200024157600281146200024c5762000282565b6001915050620002eb565b60ff8411156200026157620002606200016f565b5b8360020a9150848211156200027b576200027a6200016f565b5b50620002eb565b5060208310610133831016604e8410600b8410161715620002bc5782820a905083811115620002b657620002b56200016f565b5b620002eb565b620002cb8484846001620001ab565b92509050818404811115620002e557620002e46200016f565b5b81810290505b9392505050565b6000819050919050565b60006200030982620002f2565b91506200031683620002f2565b9250620003457fffffffffffffffffffffffffffffffffffffffffffffffffffffffffffffffff848462000206565b905092915050565b60006200035a82620002f2565b91506200036783620002f2565b9250817fffffffffffffffffffffffffffffffffffffffffffffffffffffffffffffffff0483118215151615620003a357620003a26200016f565b5b828202905092915050565b6000604051905090565b600080fd5b600080fd5b600080fd5b600080fd5b6000601f19601f8301169050919050565b7f4e487b7100000000000000000000000000000000000000000000000000000000600052604160045260246000fd5b6200041782620003cc565b810181811067ffffffffffffffff82111715620004395762000438620003dd565b5b80604052505050565b60006200044e620003ae565b90506200045c82826200040c565b919050565b600067ffffffffffffffff8211156200047f576200047e620003dd565b5b6200048a82620003cc565b9050602081019050919050565b60005b83811015620004b75780820151818401526020810190506200049a565b83811115620004c7576000848401525b50505050565b6000620004e4620004de8462000461565b62000442565b905082815260208101848484011115620005035762000502620003c7565b5b6200051084828562000497565b509392505050565b600082601f83011262000530576200052f620003c2565b5b815162000542848260208601620004cd565b91505092915050565b6200055681620002f2565b81146200056257600080fd5b50565b60008151905062000576816200054b565b92915050565b600080600060608486031215620005985762000597620003b8565b5b600084015167ffffffffffffffff811115620005b957620005b8620003bd565b5b620005c78682870162000518565b935050602084015167ffffffffffffffff811115620005eb57620005ea620003bd565b5b620005f98682870162000518565b92505060406200060c8682870162000565565b9150509250925092565b7f4e487b7100000000000000000000000000000000000000000000000000000000600052602260045260246000fd5b600060028204905060018216806200065e57607f821691505b6020821081141562000675576200067462000616565b5b50919050565b610377806200068b6000396000f3fe608060405234801561001057600080fd5b506004361061004c5760003560e01c806306fdde031461005157806318160ddd1461006f578063313ce5671461008d57806395d89b41146100ab575b600080fd5b6100596100c9565b604051610066919061028a565b60405180910390f35b610077610157565b60405161008491906102c5565b60405180910390f35b61009561015d565b6040516100a291906102c5565b60405180910390f35b6100b3610163565b6040516100c0919061028a565b60405180910390f35b600080546100d69061030f565b80601f01602080910402602001604051908101604052809291908181526020018280546101029061030f565b801561014f5780601f106101245761010080835404028352916020019161014f565b820191906000526020600020905b81548152906001019060200180831161013257829003601f168201915b505050505081565b60035481565b60025481565b600180546101709061030f565b80601f016020809104026020016040519081016040528092919081815260200182805461019c9061030f565b80156101e95780601f106101be576101008083540402835291602001916101e9565b820191906000526020600020905b8154815290600101906020018083116101cc57829003601f168201915b505050505081565b600081519050919050565b600082825260208201905092915050565b60005b8381101561022b578082015181840152602081019050610210565b8381111561023a576000848401525b50505050565b6000601f19601f8301169050919050565b600061025c826101f1565b61026681856101fc565b935061027681856020860161020d565b61027f81610240565b840191505092915050565b600060208201905081810360008301526102a48184610251565b905092915050565b6000819050919050565b6102bf816102ac565b82525050565b60006020820190506102da60008301846102b6565b92915050565b7f4e487b7100000000000000000000000000000000000000000000000000000000600052602260045260246000fd5b6000600282049050600182168061032757607f821691505b6020821081141561033b5761033a6102e0565b5b5091905056fea2646970667358221220f12c7b97341ac3831097e32340aa55b748c21caf754b0683992ed69cf9588c7764736f6c63430008090033",
  "linkReferences": {},
  "deployedLinkReferences": {}
}