{
  "_format": "hh-sol-artifact-1",
  "contractName": "Token",
  "sourceName": "contracts/Token.sol",
  "abi": [
    {
      "inputs": [
        {
          "internalType": "string",
          "name": "_name",
          "type": "string"
        },
        {
          "internalType": "string",
          "name": "_symbol",
          "type": "string"
        },
        {
          "internalType": "uint256",
          "name": "_totalSupply",
          "type": "uint256"
        }
      ],
      "stateMutability": "nonpayable",
      "type": "constructor"
    },
    {
      "anonymous": false,
      "inputs": [
        {
          "indexed": true,
          "internalType": "address",
          "name": "from",
          "type": "address"
        },
        {
          "indexed": true,
          "internalType": "address",
          "name": "to",
          "type": "address"
        },
        {
          "indexed": false,
          "internalType": "uint256",
          "name": "value",
          "type": "uint256"
        }
      ],
      "name": "Transfer",
      "type": "event"
    },
    {
      "inputs": [
        {
          "internalType": "address",
          "name": "",
          "type": "address"
        }
      ],
      "name": "balanceOf",
      "outputs": [
        {
          "internalType": "uint256",
          "name": "",
          "type": "uint256"
        }
      ],
      "stateMutability": "view",
      "type": "function"
    },
    {
      "inputs": [],
      "name": "decimals",
      "outputs": [
        {
          "internalType": "uint256",
          "name": "",
          "type": "uint256"
        }
      ],
      "stateMutability": "view",
      "type": "function"
    },
    {
      "inputs": [],
      "name": "name",
      "outputs": [
        {
          "internalType": "string",
          "name": "",
          "type": "string"
        }
      ],
      "stateMutability": "view",
      "type": "function"
    },
    {
      "inputs": [],
      "name": "symbol",
      "outputs": [
        {
          "internalType": "string",
          "name": "",
          "type": "string"
        }
      ],
      "stateMutability": "view",
      "type": "function"
    },
    {
      "inputs": [],
      "name": "totalSupply",
      "outputs": [
        {
          "internalType": "uint256",
          "name": "",
          "type": "uint256"
        }
      ],
      "stateMutability": "view",
      "type": "function"
    },
    {
      "inputs": [
        {
          "internalType": "address",
          "name": "_to",
          "type": "address"
        },
        {
          "internalType": "uint256",
          "name": "_value",
          "type": "uint256"
        }
      ],
      "name": "transfer",
      "outputs": [
        {
          "internalType": "bool",
          "name": "success",
          "type": "bool"
        }
      ],
      "stateMutability": "nonpayable",
      "type": "function"
    }
  ],
  "bytecode": "0x608060405260126002553480156200001657600080fd5b5060405162000eb038038062000eb083398181016040528101906200003c919062000369565b826000908051906020019062000054929190620000e1565b5081600190805190602001906200006d929190620000e1565b50600254600a6200007f919062000586565b816200008c9190620005d7565b600381905550600354600460003373ffffffffffffffffffffffffffffffffffffffff1673ffffffffffffffffffffffffffffffffffffffff168152602001908152602001600020819055505050506200069d565b828054620000ef9062000667565b90600052602060002090601f0160209004810192826200011357600085556200015f565b82601f106200012e57805160ff19168380011785556200015f565b828001600101855582156200015f579182015b828111156200015e57825182559160200191906001019062000141565b5b5090506200016e919062000172565b5090565b5b808211156200018d57600081600090555060010162000173565b5090565b6000604051905090565b600080fd5b600080fd5b600080fd5b600080fd5b6000601f19601f8301169050919050565b7f4e487b7100000000000000000000000000000000000000000000000000000000600052604160045260246000fd5b620001fa82620001af565b810181811067ffffffffffffffff821117156200021c576200021b620001c0565b5b80604052505050565b60006200023162000191565b90506200023f8282620001ef565b919050565b600067ffffffffffffffff821115620002625762000261620001c0565b5b6200026d82620001af565b9050602081019050919050565b60005b838110156200029a5780820151818401526020810190506200027d565b83811115620002aa576000848401525b50505050565b6000620002c7620002c18462000244565b62000225565b905082815260208101848484011115620002e657620002e5620001aa565b5b620002f38482856200027a565b509392505050565b600082601f830112620003135762000312620001a5565b5b815162000325848260208601620002b0565b91505092915050565b6000819050919050565b62000343816200032e565b81146200034f57600080fd5b50565b600081519050620003638162000338565b92915050565b6000806000606084860312156200038557620003846200019b565b5b600084015167ffffffffffffffff811115620003a657620003a5620001a0565b5b620003b486828701620002fb565b935050602084015167ffffffffffffffff811115620003d857620003d7620001a0565b5b620003e686828701620002fb565b9250506040620003f98682870162000352565b9150509250925092565b7f4e487b7100000000000000000000000000000000000000000000000000000000600052601160045260246000fd5b60008160011c9050919050565b6000808291508390505b6001851115620004915780860481111562000469576200046862000403565b5b6001851615620004795780820291505b8081029050620004898562000432565b945062000449565b94509492505050565b600082620004ac57600190506200057f565b81620004bc57600090506200057f565b8160018114620004d55760028114620004e05762000516565b60019150506200057f565b60ff841115620004f557620004f462000403565b5b8360020a9150848211156200050f576200050e62000403565b5b506200057f565b5060208310610133831016604e8410600b8410161715620005505782820a9050838111156200054a576200054962000403565b5b6200057f565b6200055f84848460016200043f565b9250905081840481111562000579576200057862000403565b5b81810290505b9392505050565b600062000593826200032e565b9150620005a0836200032e565b9250620005cf7fffffffffffffffffffffffffffffffffffffffffffffffffffffffffffffffff84846200049a565b905092915050565b6000620005e4826200032e565b9150620005f1836200032e565b9250817fffffffffffffffffffffffffffffffffffffffffffffffffffffffffffffffff04831182151516156200062d576200062c62000403565b5b828202905092915050565b7f4e487b7100000000000000000000000000000000000000000000000000000000600052602260045260246000fd5b600060028204905060018216806200068057607f821691505b6020821081141562000697576200069662000638565b5b50919050565b61080380620006ad6000396000f3fe608060405234801561001057600080fd5b50600436106100625760003560e01c806306fdde031461006757806318160ddd14610085578063313ce567146100a357806370a08231146100c157806395d89b41146100f1578063a9059cbb1461010f575b600080fd5b61006f61013f565b60405161007c919061052b565b60405180910390f35b61008d6101cd565b60405161009a9190610566565b60405180910390f35b6100ab6101d3565b6040516100b89190610566565b60405180910390f35b6100db60048036038101906100d691906105e4565b6101d9565b6040516100e89190610566565b60405180910390f35b6100f96101f1565b604051610106919061052b565b60405180910390f35b6101296004803603810190610124919061063d565b61027f565b6040516101369190610698565b60405180910390f35b6000805461014c906106e2565b80601f0160208091040260200160405190810160405280929190818152602001828054610178906106e2565b80156101c55780601f1061019a576101008083540402835291602001916101c5565b820191906000526020600020905b8154815290600101906020018083116101a857829003601f168201915b505050505081565b60035481565b60025481565b60046020528060005260406000206000915090505481565b600180546101fe906106e2565b80601f016020809104026020016040519081016040528092919081815260200182805461022a906106e2565b80156102775780601f1061024c57610100808354040283529160200191610277565b820191906000526020600020905b81548152906001019060200180831161025a57829003601f168201915b505050505081565b600081600460003373ffffffffffffffffffffffffffffffffffffffff1673ffffffffffffffffffffffffffffffffffffffff1681526020019081526020016000205410156102cd57600080fd5b600073ffffffffffffffffffffffffffffffffffffffff168373ffffffffffffffffffffffffffffffffffffffff16141561030757600080fd5b81600460003373ffffffffffffffffffffffffffffffffffffffff1673ffffffffffffffffffffffffffffffffffffffff168152602001908152602001600020546103529190610743565b600460003373ffffffffffffffffffffffffffffffffffffffff1673ffffffffffffffffffffffffffffffffffffffff1681526020019081526020016000208190555081600460008573ffffffffffffffffffffffffffffffffffffffff1673ffffffffffffffffffffffffffffffffffffffff168152602001908152602001600020546103e09190610777565b600460008573ffffffffffffffffffffffffffffffffffffffff1673ffffffffffffffffffffffffffffffffffffffff168152602001908152602001600020819055508273ffffffffffffffffffffffffffffffffffffffff163373ffffffffffffffffffffffffffffffffffffffff167fddf252ad1be2c89b69c2b068fc378daa952ba7f163c4a11628f55a4df523b3ef846040516104809190610566565b60405180910390a36001905092915050565b600081519050919050565b600082825260208201905092915050565b60005b838110156104cc5780820151818401526020810190506104b1565b838111156104db576000848401525b50505050565b6000601f19601f8301169050919050565b60006104fd82610492565b610507818561049d565b93506105178185602086016104ae565b610520816104e1565b840191505092915050565b6000602082019050818103600083015261054581846104f2565b905092915050565b6000819050919050565b6105608161054d565b82525050565b600060208201905061057b6000830184610557565b92915050565b600080fd5b600073ffffffffffffffffffffffffffffffffffffffff82169050919050565b60006105b182610586565b9050919050565b6105c1816105a6565b81146105cc57600080fd5b50565b6000813590506105de816105b8565b92915050565b6000602082840312156105fa576105f9610581565b5b6000610608848285016105cf565b91505092915050565b61061a8161054d565b811461062557600080fd5b50565b60008135905061063781610611565b92915050565b6000806040838503121561065457610653610581565b5b6000610662858286016105cf565b925050602061067385828601610628565b9150509250929050565b60008115159050919050565b6106928161067d565b82525050565b60006020820190506106ad6000830184610689565b92915050565b7f4e487b7100000000000000000000000000000000000000000000000000000000600052602260045260246000fd5b600060028204905060018216806106fa57607f821691505b6020821081141561070e5761070d6106b3565b5b50919050565b7f4e487b7100000000000000000000000000000000000000000000000000000000600052601160045260246000fd5b600061074e8261054d565b91506107598361054d565b92508282101561076c5761076b610714565b5b828203905092915050565b60006107828261054d565b915061078d8361054d565b9250827fffffffffffffffffffffffffffffffffffffffffffffffffffffffffffffffff038211156107c2576107c1610714565b5b82820190509291505056fea26469706673582212203efd4bc38838a611452c4f131f952b66b4d3a264669263232d3498ceebdb7bc464736f6c63430008090033",
  "linkReferences": {},
  "deployedLinkReferences": {}
}